:020000040000FA
:100000000128831203138501831606309F00C03038
:100010008500860183128601A001A10111202920FB
:100020000E280514851020081E2086003D2005108E
:10003000851421081E2086003D20080082073F34D9
:1000400006345B344F3466346D347D3407347F348A
:100050006F34A40AFF302402031D0800A401A00A83
:100060000A302002031D0800A001A10A0A30210263
:10007000031D0800A001A10108002130A300643085
:0C008000A200A20B4128A30B3F2808009F
:02400E00313F40
:00000001FF
