:020000040000FA
:100000000128831606309F00051085108601831293
:100010008601A001A1010E2026200B2805148510C1
:1000200020081B2086003A200510851421081B207B
:1000300086003A20080082073F3406345B344F3490
:1000400066346D347D3407347F346F34A40A323023
:100050002402031D0800A401A00A0A302002031D87
:100060000800A001A10A0A302102031D0800A00116
:10007000A10108001030A3006430A200A20B3E28AA
:06008000A30B3C28080060
:02400E00313F40
:00000001FF
